{
  "transactions": [
    {
      "hash": "0x79830eb00845bd1e792795c96ccdafdcb97cbca59aff3b77234b95eaab19fa84",
      "transactionType": "CALL",
      "contractName": null,
      "contractAddress": "0xf9e126f326ae79b314e9681aae18a44cbdc6af7b",
      "function": "mintNFT(string)",
      "arguments": [
        "ipfs://Qmd1XMbbLSSybB4W4i3anjhbsbitWkBnLa4VTwAAM2sY13?filename=star-metadata.json"
      ],
      "transaction": {
        "from": "0xbb6476b878b28965969f63720e0269a48132d9e3",
        "to": "0xf9e126f326ae79b314e9681aae18a44cbdc6af7b",
        "gas": "0x4143d",
        "value": "0x0",
        "input": "0xfb37e88300000000000000000000000000000000000000000000000000000000000000200000000000000000000000000000000000000000000000000000000000000051697066733a2f2f516d6431584d62624c53537962423457346933616e6a686273626974576b426e4c613456547741414d32735931333f66696c656e616d653d737461722d6d657461646174612e6a736f6e000000000000000000000000000000",
        "nonce": "0x11",
        "chainId": "0xaa36a7"
      },
      "additionalContracts": [],
      "isFixedGasLimit": false
    }
  ],
  "receipts": [
    {
      "status": "0x1",
      "cumulativeGasUsed": "0x128e0f1",
      "logs": [
        {
          "address": "0xf9e126f326ae79b314e9681aae18a44cbdc6af7b",
          "topics": [
            "0xddf252ad1be2c89b69c2b068fc378daa952ba7f163c4a11628f55a4df523b3ef",
            "0x0000000000000000000000000000000000000000000000000000000000000000",
            "0x000000000000000000000000bb6476b878b28965969f63720e0269a48132d9e3",
            "0x0000000000000000000000000000000000000000000000000000000000000000"
          ],
          "data": "0x",
          "blockHash": "0x8471c9a45bef50f841c23f93a297ea2a7cedf5b85d9a1e4db6c525cc9d668e39",
          "blockNumber": "0x793fad",
          "blockTimestamp": "0x67dcc1e4",
          "transactionHash": "0x79830eb00845bd1e792795c96ccdafdcb97cbca59aff3b77234b95eaab19fa84",
          "transactionIndex": "0x79",
          "logIndex": "0xb2",
          "removed": false
        }
      ],
      "logsBloom": "0x10000000000000000000000000000000000000000000000000000000000000000000000000000000000000000000000000000000000000000000000000000000000000000000000000000008000000000000000000000000000000000000000000000000030000004000000000000800000000000000000000000010000000000000000000000000000000000000100000000000000000000000000000000000000000000000000000000000000000000000000000000000000000000000000000000042000000000000000000000000000000000000000000000000020020000000000000000000000000000000000000000000000000000000000000000000",
      "type": "0x2",
      "transactionHash": "0x79830eb00845bd1e792795c96ccdafdcb97cbca59aff3b77234b95eaab19fa84",
      "transactionIndex": "0x79",
      "blockHash": "0x8471c9a45bef50f841c23f93a297ea2a7cedf5b85d9a1e4db6c525cc9d668e39",
      "blockNumber": "0x793fad",
      "gasUsed": "0x2ca03",
      "effectiveGasPrice": "0x4174e8",
      "from": "0xbb6476b878b28965969f63720e0269a48132d9e3",
      "to": "0xf9e126f326ae79b314e9681aae18a44cbdc6af7b",
      "contractAddress": null
    }
  ],
  "libraries": [],
  "pending": [],
  "returns": {},
  "timestamp": 1742520806,
  "chain": 11155111,
  "commit": "db1e49a"
}